:03000000021236B3
:0C123600787FE4F6D8FD75818E02127DF1
:1012C200252E326600252E316600252E30660065F9
:1012D20076656E74202562750A00525443203230BE
:1012E20025303262752C2562752C2562752C25629B
:1012F200752C2562752C2562752C25660A00C0F9AD
:10130200A4B0999282F880908883C6A1868EFFBF8E
:0C15FF00011100017600010F0001100036
:080F3C008F318E308D2F8C2EB9
:100F4400C200E4FFFEFDFCAB31AA30A92FA82E128B
:100F540002C4501BD200AF31AE30AD2FAC2E120301
:100F64003D8F318E308D2F8C2E788B7611800478C6
:100F74008B7610E4FFFE7D207C41AB31AA30A92F93
:100F8400A82E1202C450317535FF7536127537C25A
:100F940085313B85303A852F39852E387B007A00A0
:100FA400796C1207DF788B746426F6786CE624D0AB
:100FB400798CF7786E02103BE4FFFE7DC87C42AB6F
:100FC40031AA30A92FA82E1202C450307535FF75EE
:100FD40036127537C785313B85303A852F39852ED2
:100FE400387B007A00796C1207DF786CE624D079BC
:100FF4008CF708E6243409F7786F8041E4FFFE7D1E
:101004007A7C44AB31AA30A92FA82E1202C45033E3
:101014007535FF7536127537CC85313B85303A8589
:101024002F39852E387B007A00796C1207DF786CB3
:10103400E624D0798CF708E624D009F708E624D012
:1010440009F722788B760E08761008761008761049
:011054002279
:030023000214566E
:0B145600C0E0C0D075D000C000C0078F
:10146100C2987876E6062477F8A6997876E6FF247E
:1014710076F8E6B40A0D75110174772FF8760078C5
:031481007676007C
:09148400D007D000D0D0D0E03236
:1011A9004389204387807598507531007530C07523
:1011B9002F28752E4BAF31AE30AD2FAC2EE4FBFA94
:1011C900799678461202278F318E308D2F8C2EE436
:1011D900FBFAF978421202278F318E308D2F8C2E2F
:1011E900E4FBFA794078411202278F318E308D2F36
:1011F9008C2EE4FBFAF9784012011E8F318E308D66
:101209002F8C2EAB31AA30A92FA82EE4FFFE7D80AA
:101219007C431200298F318E308D2F8C2E12038C36
:0C1229008F8D8F8BD28ED2ACD2AFD2BC96
:011235002296
:06148D007B007A00794E9D
:061493008B2E8A2F893028
:10149900E4FFC2ACAB2EAA2FA9308F82758300124C
:1014A90005C8600AF5993099FDC2990F80E6D2AC5A
:0214B9007F01B1
:0114BB00220E
:1015B3005389F0438901758CEFE4F58AD2A9D2AF40
:0315C300D28C22A5
:03000B00021103DC
:10110300C0E0C0F0C083C082C0D075D000C000C0B2
:0D11130001C002C003C004C005C006C00733
:10112000758CEF758A00C2AFE50F7004C29480021F
:10113000D294E50FB40104C2938002D293E50FB4B8
:101140000204C2928002D292E50FB40304C29180DD
:1011500002D291748B250FF8E6FFD39463400AEF17
:1011600090129C93547FFF8006E690130093FF8FAC
:1011700080050FE50FD394034003750F001215117E
:0E118000EF65106005EF60028F128F10D2AF86
:10118E00D007D006D005D004D003D002D001D000B5
:0B119E00D0D0D082D083D0F0D0E0325F
:100BF200E4F525F524F523F522F52A1215B343A2CF
:100C0200801211A97FA47E707D9D7C3F120F3C1241
:100C12001664E4F525F524F523F522E47F32FEFD82
:100C2200FCAB25AA24A923A822C31206374003023B
:100C32000CC4C2B4E4F529F528F527F526E47F6E45
:100C4200FEFDFCAB29AA28A927A826C31206375005
:100C52001BE4FAF9F8E5292401F529EA3528F528F3
:100C6200E93527F527E83526F52680D1D2B4E4F513
:100C720029F528F527F526E47F6EFEFDFCAB29AAAF
:100C820028A927A826C3120637501BE4FAF9F8E56B
:100C9200292401F529EA3528F528E93527F527E839
:100CA2003526F52680D1E4FAF9F8E5252401F52563
:100CB200EA3524F524E93523F523E83522F5220225
:100CC2000C1DE4F525F524F523F522E47FFAFEFD5B
:100CD200FCAB25AA24A923A822C31206374003028B
:100CE2000D74C2B4E4F529F528F527F526E47F282A
:100CF200FEFDFCAB29AA28A927A826C31206375055
:100D02001BE4FAF9F8E5292401F529EA3528F52842
:100D1200E93527F527E83526F52680D1D2B4E4F562
:100D220029F528F527F526E47F28FEFDFCAB29AA44
:100D320028A927A826C3120637501BE4FAF9F8E5BA
:100D4200292401F529EA3528F528E93527F527E888
:100D52003526F52680D1E4FAF9F8E5252401F525B2
:100D6200EA3524F524E93523F523E83522F5220274
:100D72000CCD782212064DE47B107A27F9F8C312C3
:100D820006377002D2B5E51260237535FF7536124B
:100D92007537D1F5387B007A00794E1207DF1214CD
:100DA2008DAC12E4120358120F3CE4F512E47BE816
:100DB2007A03F9F8AF25AE24AD23AC2212135FAC4F
:100DC20000AD01AE02AF03EC4D4E4F703E1213E682
:100DD200E52A650860321213A38F418E408D3F8C45
:100DE2003E7535FF7536127537DC850E38850C3940
:100DF200850B3A850A3B85093C85083D7B007A00D4
:100E0200794E1207DF12148D85082AE47F207E4E68
:100E1200FDFCAB25AA24A923A822D3120637400B36
:100E2200C2B5E4F525F524F523F522E51170030298
:100E32000D74E4F5117877E664526003020D7408CC
:100E4200E664546003020D7408E664436003020D15
:100E520074FB7A007977F52B8A2C892D7D20121567
:100E6200818B2B8A2C892D7401252DF52DE4352CAF
:100E7200F52CFAA92D1210558F0EAB2BAA2CA92DE9
:100E82007D2C1215818B2B8A2C892D7401252DF531
:100E92002DE4352CF52CFAA92D1210558F0CAB2B05
:100EA200AA2CA92D7D2C1215818B2B8A2C892D74AD
:100EB20001252DF52DE4352CF52CFAA92D1210550E
:100EC2008F0BAB2BAA2CA92D7D2C1215818B2B8A73
:100ED2002C892D7401252DF52DE4352CF52CFAA93C
:100EE2002D1210558F0AAB2BAA2CA92D7D2C121571
:100EF200818B2B8A2C892D7401252DF52DE4352C1F
:100F0200F52CFAA92D1210558F09AB2BAA2CA92D5D
:100F12007D2C1215818B2B8A2C892D7401252DF5A0
:100F22002DE4352CF52CFAA92D1210558F087B00D3
:0A0F32007A0079081214BC020D7455
:1014EA00EF540FF534EFC4540FFF53070FAC07E462
:1014FA00120358E4FBFA7920784112011E12038C78
:06150A00EF2534F534FF6B
:0115100022B8
:1015C600EF75F00A84FEEF75F00A84EEC454F02538
:0215D600F0FF24
:0115D80022F0
:09165A00E4FF0000000FBF0AF9D3
:011663002264
:101611007F08C313D2B6A2B692E7D295C295DFF284
:01162100FFC9
:0116220022A5
:06159D00C2B7C295D2B7EF
:0F15A300EF7F08A2E092B6D295C295C313DFF492
:0115B2002216
:0F162300AE0512159DAF061215A3C2B7D29522C0
:0A164F0012159D121611C2B7D295B4
:01165900226E
:1014BC00752E80E4FD7F8E1216237C071205AFFF7C
:1014CC001215C6AD07AF2E121623740129F9E43A92
:0E14DC00FA052E052EDCE57D807F8E0216239C
:1013E600752F81E4F530F531753200753308F52E29
:1013F600AF2F12164F8F301214EAAB31AA32A9332F
:10140600852E82758300EF120607052F052F052E00
:07141600E52EC3940740D945
:01141D0022AC
:05166400C2B7C295228F
:02160B00C10A12
:05000300120008D2B359
:020008000022D4
:1015D900D2B2120003C2B2120008C2B3120008E468
:0315E900FEFF22E0
:0E164100C2B2120003D2B2120008E4FEFF2271
:10000E00EF6004C2B28002D2B2120003C2B3120079
:05001E0008E4FEFF22D2
:10141E00E4FEEFA806088002C333D8FC30E704D2FE
:10142E00B28002C2B2120003C2B30EBE08E4D2B240
:10143E0012000812000330B204C20A8002D20AC29D
:07144E00B3120008E4FEFFE9
:011455002274
:10155F00E4FFD2B2FE120008C2B3120003EF25E07F
:10156F00FF30B2010F1200080EBE08E9C2B312001D
:01157F000863
:011580002248
:02131200AC0726
:101314001215D9AF0412141EAF0512141E1215D9DA
:10132400EC04FF12141EE4FDE53914FFEDC39F50D5
:101334001612155FEF1205F57F0112000E740129D4
:10134400F9E43AFA0D80E112155FEF1205F5E4FFB6
:0A13540012000E1216417E007F0108
:01135E00226C
:041669007FBFDFEF71
:03160D00011200C7
:1015110020A3037FFE222090037FFF22E4FFEF90B0
:10152100166993F5A0E5A0540F640F6003AFA022E4
:061531000FBF04EA7F0079
:011537002291
:1013A3007B007A00792E753902E4FD7F90121312C7
:1013B300AC2EAD2FEC1203538F338E328D318C3024
:1013C300E4FBFAF978421202278F338E328D318C87
:1013D30030E4FBFAF9783E12011E8F338E328D31E1
:0213E3008C304C
:0113E50022E5
:100026000203F8E86480F8E933E83360110460F00D
:10003600ED33EC337009E8FCE9FDEAFEEBFF220440
:1000460060DED3EB9FEA9EE99DE8C2E78CF0C2F73B
:1000560095F0400CE8CCF8E9CDF9EACEFAEBCFFB07
:100066001203C385D0F05804700320D5B3E804709A
:10007600075002B2D502040292D5EC0460F7E4CC34
:10008600C0E0C398F8603B94186008400DD0E0FBD0
:100096000203DAE4FBFAC9FC8028E830E406E4C986
:1000A600FBE4CAFCE830E305E4C9CACBFCE8540724
:1000B6006010F8C3E913F9EA13FAEB13FBEC13FC2F
:1000C600D8F130F52FC3E49CFCEF9BFFEE9AFEEDD2
:1000D60099FDD0E0FBEF4E4D4C701222DB0302037C
:1000E600FFEC2CFCEF33FFEE33FEED33FDED30E796
:1000F600EB0203DAEF2BFFEE3AFEED39FDD0E0FB23
:1001060050130BBB0003020402ED13FDEE13FEEFCA
:0801160013FFEC13FC0203DAF5
:10011E00EC4D6011E8497017ED33EC3304600DE4DB
:10012E00FCFFFEFD22E933E8330470F80203F812F7
:10013E0003C358046009E4CC2481500628500902F8
:10014E0004022840030203FFC0E0EB4A7044B9806A
:10015E0006D0E0FB0203EEEF4E701CBD8008EBFFF5
:10016E00EAFEE9FD80EBE98DF0A4FEE5F002020760
:10017E00E9CDF9EAFEEBFFEF89F0A4FCE5F0CE89BC
:10018E00F0A42EFFE435F0CD89F0A42DFEE435F079
:10019E008067EF4E7005BD80D780C3EF8BF0A4ACA7
:1001AE00F0EE8BF0A42CFCE435F0F8EF8AF0A42CE2
:1001BE00E5F038FCE433CB8DF0A42CFCE5F03BF8F5
:1001CE00EE8AF0A42CFCE5F038F8E433CF89F0A4E5
:1001DE002CFCE5F038CF3400CE89F0A42FFFE5F0EB
:1001EE003EFEE433C98DF0A42EFEE5F039CD8AF043
:1001FE00A42FFFE5F03EFEE43DFD33D0E0FB5007BB
:10020E000BBB000F020402EC2CFCEF33FFEE33FEAF
:06021E00ED33FD0203DADE
:10022400020402EC5D046005E8590470030203F85B
:100234001203C3580460F6EC4860F2EC7004FDFE4F
:10024400FF22C860DB2481C85009C39860025006AD
:100254000203FF9850CAF582E9294B4A7005AB8224
:100264000203EE75F0007C1A7880C3EF9BEE9AEDE2
:1002740099400DC3EF9BFFEE9AFEED99FDE842F025
:10028400DC23ACF0D0E0FFD0E0FED0E0FDAB822078
:10029400E7101BEB60BAEC2CFCEF33FFEE33FEED02
:1002A40033FD0203DAE803F830E705C0F075F00027
:1002B400EF2FFFEE33FEED33FD40B830E7C280AAE6
:1002C40074F8CC6480CCC86480C8F58204604FC3E1
:1002D400EB9FF5F0EA9E42F0E99D42F0E89C45F080
:1002E400603C501DE5825FFFE582D313CB5BCBF40A
:1002F4002B5582FB50280ABA002409B90020088033
:100304001DE5825BFBE582D313CF5FCFF4C3132FCC
:100314005582FF50090EBE00050DBD00010CC3EB54
:100324009FF5F0EA9E42F0E99D42F0E89C45F060BA
:0903340007CC4820E701B3EC22DC
:10033D00ED33EC33600A047003BD8004ECB2E7FCCE
:01034D00228D
:10034E0075F020800E75F010800575F0087D007E2A
:10035E00007F003392D530D503120629EC334010BE
:10036E00EF33FFEE33FEED33FDEC33FCD5F0ED2233
:0E037E00E5F0247EA2D513CC92E7CDCEFF226F
:10038C00EDD2E7CD33EC3392D524814006E4FFFE69
:10039C00FDFC22FCE4CFCECDCC24E0501174FF80C8
:1003AC00EDC3CC13CCCD13CDCE13CECF13CF047065
:0703BC00F030D5DE02062936
:10078300E5492435F8E60549227832300802783500
:10079300E475F00112066D0205AF2001EB7F2ED246
:1007A300018018EF540F2490D43440D4FF30050B4C
:1007B300EF24BFB41A0050032461FFE54A60021519
:1007C3004A054DE54D7002054C30080D7832E4754D
:1007D300F00112066DEF0205F50215387403D20815
:1007E3008003E4C208F5498B328A338934E4F54A3D
:1007F300F54CF54DE54A60077F201207BE80F5757D
:100803004BFFC202C201C203C204C206C207C2092D
:1008130012078CFF700D3008057F001207CFAF4D14
:10082300AE4C22B4255FC2D5C20512078CFF24D07B
:10083300B40A00501A75F00A784A30D50508B6FF95
:100843000106C6A426F620D5047002D20480D9245A
:10085300CFB41A00EF5004C2E5D205020ABCD2029B
:1008630080C6D20180C0D20380BCD2D580BAD20662
:1008730080B47F201207BE2003077401B54A0040ED
:10088300F1120783FF1207BE0207F7D209D20780CE
:1008930095120783FB120783FA120783F94A4B70F9
:1008A3000679B37A0B7BFF20032EE54A602A7E008C
:1008B3008E827583001205C860060EEE654B70F0DC
:1008C300C2D5EBC0E0EAC0E0E9C0E0EE120B1CD0F9
:1008D300E0F9D0E0FAD0E0FB1205AFFF60AAEBC06D
:1008E300E0EAC0E0E9C0E01207BED0E02401F9D09D
:1008F300E03400FAD0E0FBE54B0460DCD54BD98053
:1009030087D20380A2120AFF60F7E54B700104123D
:10091300040DA94B600DE54B600914F54B120BA6B2
:10092300EF60F3EA30E702F404C3995077EAF42561
:100933004B0430E701E404F54B800D120AFF60C15C
:10094300EA054B254B12040DEA7848F630E701E43B
:10095300254B04D54B0420060114120B1CE4C0E004
:10096300120BA67848E6601320E70714F61207A6D1
:10097300802204F6D0E014C0E07F001207A6E54B06
:10098300600712079D154B800B30060312079DD09D
:10099300E00207F7D0E00480C5120AFF60A0E54B30
:1009A3000412040D7848EAF6E54B200602600104C0
:0509B3002404120B1CDE
:1009B80074FF04C0E0120BA61207A6E54B2006023E
:1009C800600312079DD0E0B54BE87F451207B07869
:1009D80048E67F2B30E7047F2DF404C0E01207BE01
:1009E800D0E075F00A84C0F01207A7D0E01207A77C
:1009F8000207F7791080027908C207C2098008D275
:100A0800D5790A8004790AC2D5E54B047002F54B02
:100A1800E4FAFDFEFF120783FC7B0820021312078D
:100A280083FD7B1030010A120783FE120783FF7BC8
:100A380020EC3382D592D55013C3E43001069FFFD2
:100A4800E49EFEE42002039DFDE49CFCE4CBF8C296
:100A580002EC700CCFCECDCCE824F8F870F38017F8
:100A6800C3EF33FFEE33FEED33FDEC33FCEB33FB2A
:100A7800994002FB0FD8E9EB300205F8D0E0C448F2
:100A8800B202C0E00AEC4D4E4F78207B0070C2EAFB
:100A9800B54B0040BCC0E0120B1ED0F0D0E02002E5
:100AA80004C4C0E0C4B202C0F01207A7D0F0D5F069
:100AB800EB0207F712067D08945309FB5808654CAA
:100AC80008614209FF4F0A07440A0749087A430A9E
:100AD8000D55093E46099C450908470BD35008693E
:100AE8002D086D2E08902B087123088E200BBC2A28
:100AF80008294800000888E54BB4FF03754B061227
:100B08000783FC120783FD120783FE120783FF7811
:100B18004102043C790AA2D5200414300609B91010
:100B2800020404B9080104A2D520070250010420D8
:100B380003689203B54A005034C0E07F203004199E
:100B48007F30A20372077206500F120B75C203C2E0
:100B580007C206C2097F30800F300603E9C0E012E1
:100B680007BE300603D0E0F9D0E0B54ACC3006170E
:100B78007F30B9100C1207BE7F583005077F788088
:100B880003B908031207BE3003057F2D0207BE7F95
:100B9800202009F87F2B2007F322920380CF7F00C3
:100BA800B4070050052441F8E6FF22286E756C6CE6
:100BB8002900D2021207833002F8C202784A30D5DF
:100BC8000108F60208292D504349581207832403C7
:100BD800B405004001E4900BCE931207AF743A12AB
:0A0BE80007AFD204754A040209FBAE
:1003C300E9D2E7C933E833F892D5EDD2E7CD33EC80
:0703D30033FC5002B2D522F9
:1003DA00EC30E7100FBF000C0EBE00080DBD000484
:1003EA000BEB6014A2D5EB13FCED92E7FD2274FF30
:1003FA00FCFDFEFF22E480F8A2D574FF13FC7D8089
:03040A00E480EF9C
:10040D00F920E72824F950037907E4F42402FB18B6
:10041D00DBFDE624FB5014E9600DE4F618E604F666
:0F042D00B40A08E4F6D9F57401F60A22C2D52202
:10043C00ED33EC3392D5FA602AB4FF33EDC2E77B8F
:10044C00FF60067A047961E4227A04796A20D50483
:10045C007A047965224E614E002B494E46002D4997
:10046C004E4600E47A08F608DAFC7B00740722E8B2
:10047C00C0E0ECC0E0EDC0E0EEC0E0EFC0E0EA753B
:10048C00F010A4CAABF075F04DA42BFBE435F0FCD6
:10049C00EA2410FAEB34C5FBEC34D9FCEDC2E7FFCF
:1004AC0075F056A4F42411C5F0F434C58FF0A42AC9
:1004BC00E5F03BE43CF620E71412056FD0E0FFD0EA
:1004CC00E0FED0E0FDD0E0FC1202278014F4041210
:1004DC00056FD0E0FFD0E0FED0E0FDD0E0FC1201D3
:1004EC001ED0E0F8E6FAEDD2E7CD33EC332482FBF4
:1004FC00E4C3CF33CFCE33CECD33CD33DBF37B0759
:10050C0075F00A846004F6081B0AE5F0F6088FF013
:10051C00740AA4FFACF08EF0740AA42CFEACF0505C
:10052C00010C8DF0740AA42CFDE435F0F608DBDE2A
:03053C007407221F
:10053F003F8000004120000042C80000447A0000C4
:10054F00461C400047C35000497424004B18968046
:10055F004CBEBC205A0E1BCA6753C21C749DC5AE3D
:10056F00FB60065407601C232312059DEB54386073
:10057F000912058912059812011EECF8EDF9EEFA31
:10058F00EFCB22EB12059880F1543803241C900511
:10059F003FFE93FC0EEE93FD0EEE930ECE93FF22D5
:10124200020BF2E493A3F8E493A34003F68001F2C5
:1012520008DFF48029E493A3F85407240CC8C333AD
:10126200C4540F4420C8834004F456800146F6DF7C
:10127200E4800B01020408102040809015FFE47EF8
:10128200019360BCA3FF543F30E509541FFEE49371
:10129200A360010ECF54C025E060A840B8E493A338
:1012A200FAE493A3F8E493A3C8C582C8CAC583CA63
:1012B200F0A3C8C582C8CAC583CADFE9DEE780BE1B
:0116100000D9
:1005AF00BB010689828A83E0225002E722BBFE024A
:0905BF00E32289828A83E493227D
:1005C800BB010CE58229F582E5833AF583E02250E8
:1005D80006E92582F8E622BBFE06E92582F8E22232
:0D05E800E58229F582E5833AF583E493224C
:1005F500BB010689828A83F0225002F722BBFE01E5
:02060500F322DE
:10060700F8BB010DE58229F582E5833AF583E8F029
:10061700225006E92582C8F622BBFE05E92582C8D5
:02062700F222BD
:10135F00C2D5E830E70FB2D5E4C39BFBE49AFAE4B9
:10136F0099F9E498F8EC30E717B2D51213951206F5
:10137F00F1E4C39BFBE49AFAE499F9E498F880034B
:10138F001206F130D50DE4C39FFFE49EFEE49DFDF0
:04139F00E49CFC22AC
:0E062900C3E49FFFE49EFEE49DFDE49CFC22E2
:10063700EB9FF5F0EA9E42F0E99D42F0EC6480C83A
:0606470064809845F022DA
:10064D007401FF3395E0FEFDFC080808E6CF2FF698
:10065D0018E6CE3EF618E6CD3DF618E6CC3CF62271
:10066D00FAE6FB0808E6F925F0F618E6CA3AF6228E
:10067D00D083D082F8E4937012740193700DA3A30C
:10068D0093F8740193F5828883E473740293686020
:06069D00EFA3A3A380DF20
:10153800EFB40A07740D121543740A309811A8996C
:10154800B8130CC2983098FDA899C298B811F63013
:0715580099FDC299F59922EB
:10158100E94A4B7001221205AFFF6D700122EF7025
:0C15910004FBFAF92209E970ED0A80EA77
:101055008B2E8A2F8930AB2EAA2FA9301205AFFF10
:101065001215EC500D74012530F530E4352FF52FB0
:1010750080E4D200AB2EAA2FA9301205AFFF642B56
:101085006004EFB42D1BAB2E0530E530AA2F70029E
:10109500052F14F91205AF642D6003D38001C392A7
:1010A50000E4F531F532AB2EAA2FA9301205AFFFBA
:1010B5001216325036AB2EAA2FA9301205AFFF33C8
:1010C50095E0FEEF24D0FBEE34FFFAAE31AF327C73
:1010D500007D0A1206A3EF2BF532EE3AF5317401C5
:1010E5002530F530E4352FF52F80BB300006AE31C5
:0E10F500AF328009C3E49532FFE49531FE224C
:1006A300EF8DF0A4A8F0CF8CF0A428CE8DF0A42E6B
:0206B300FE2225
:1006B50075F008758200EF2FFFEE33FECD33CDCCFC
:1006C50033CCC58233C5829BED9AEC99E58298407F
:1006D5000CF582EE9BFEED9AFDEC99FC0FD5F0D65C
:1006E500E4CEFBE4CDFAE4CCF9A88222B800C1B986
:1006F5000059BA002DEC8BF084CFCECDFCE5F0CBC4
:10070500F97818EF2FFFEE33FEED33FDEC33FCEBFC
:1007150033FB10D703994004EB99FB0FD8E5E4F9B7
:10072500FA227818EF2FFFEE33FEED33FDEC33FCA4
:10073500C933C910D7059BE99A4007EC9BFCE99A98
:10074500F90FD8E0E4C9FAE4CCFB2275F010EF2FDD
:10075500FFEE33FEED33FDCC33CCC833C810D707DD
:100765009BEC9AE899400AED9BFDEC9AFCE899F818
:0E0775000FD5F0DAE4CDFBE4CCFAE4C8F922AB
:0F163200EFC394304007EF943A50028001C32277
:1015EC00EFC394094005EF940E4003BF2003D38052
:0315FC0001C32206
:00000001FF
